{
  "_format": "hh-sol-artifact-1",
  "contractName": "HKPtoken",
  "sourceName": "contracts/Token.sol",
  "abi": [
    {
      "inputs": [],
      "stateMutability": "nonpayable",
      "type": "constructor"
    },
    {
      "anonymous": false,
      "inputs": [
        {
          "indexed": true,
          "internalType": "address",
          "name": "owner",
          "type": "address"
        },
        {
          "indexed": true,
          "internalType": "address",
          "name": "spender",
          "type": "address"
        },
        {
          "indexed": false,
          "internalType": "uint256",
          "name": "value",
          "type": "uint256"
        }
      ],
      "name": "Approval",
      "type": "event"
    },
    {
      "anonymous": false,
      "inputs": [
        {
          "indexed": true,
          "internalType": "address",
          "name": "from",
          "type": "address"
        },
        {
          "indexed": true,
          "internalType": "address",
          "name": "to",
          "type": "address"
        },
        {
          "indexed": false,
          "internalType": "uint256",
          "name": "value",
          "type": "uint256"
        }
      ],
      "name": "Transfer",
      "type": "event"
    },
    {
      "inputs": [
        {
          "internalType": "address",
          "name": "owner",
          "type": "address"
        },
        {
          "internalType": "address",
          "name": "spender",
          "type": "address"
        }
      ],
      "name": "allowance",
      "outputs": [
        {
          "internalType": "uint256",
          "name": "",
          "type": "uint256"
        }
      ],
      "stateMutability": "view",
      "type": "function"
    },
    {
      "inputs": [
        {
          "internalType": "address",
          "name": "spender",
          "type": "address"
        },
        {
          "internalType": "uint256",
          "name": "amount",
          "type": "uint256"
        }
      ],
      "name": "approve",
      "outputs": [
        {
          "internalType": "bool",
          "name": "",
          "type": "bool"
        }
      ],
      "stateMutability": "nonpayable",
      "type": "function"
    },
    {
      "inputs": [
        {
          "internalType": "address",
          "name": "account",
          "type": "address"
        }
      ],
      "name": "balanceOf",
      "outputs": [
        {
          "internalType": "uint256",
          "name": "",
          "type": "uint256"
        }
      ],
      "stateMutability": "view",
      "type": "function"
    },
    {
      "inputs": [
        {
          "internalType": "uint256",
          "name": "amount",
          "type": "uint256"
        }
      ],
      "name": "burn",
      "outputs": [],
      "stateMutability": "nonpayable",
      "type": "function"
    },
    {
      "inputs": [
        {
          "internalType": "address",
          "name": "account",
          "type": "address"
        },
        {
          "internalType": "uint256",
          "name": "amount",
          "type": "uint256"
        }
      ],
      "name": "burnFrom",
      "outputs": [],
      "stateMutability": "nonpayable",
      "type": "function"
    },
    {
      "inputs": [],
      "name": "decimals",
      "outputs": [
        {
          "internalType": "uint8",
          "name": "",
          "type": "uint8"
        }
      ],
      "stateMutability": "view",
      "type": "function"
    },
    {
      "inputs": [
        {
          "internalType": "address",
          "name": "spender",
          "type": "address"
        },
        {
          "internalType": "uint256",
          "name": "subtractedValue",
          "type": "uint256"
        }
      ],
      "name": "decreaseAllowance",
      "outputs": [
        {
          "internalType": "bool",
          "name": "",
          "type": "bool"
        }
      ],
      "stateMutability": "nonpayable",
      "type": "function"
    },
    {
      "inputs": [
        {
          "internalType": "address",
          "name": "spender",
          "type": "address"
        },
        {
          "internalType": "uint256",
          "name": "addedValue",
          "type": "uint256"
        }
      ],
      "name": "increaseAllowance",
      "outputs": [
        {
          "internalType": "bool",
          "name": "",
          "type": "bool"
        }
      ],
      "stateMutability": "nonpayable",
      "type": "function"
    },
    {
      "inputs": [],
      "name": "maxSupply",
      "outputs": [
        {
          "internalType": "uint256",
          "name": "",
          "type": "uint256"
        }
      ],
      "stateMutability": "view",
      "type": "function"
    },
    {
      "inputs": [
        {
          "internalType": "uint256",
          "name": "amount",
          "type": "uint256"
        }
      ],
      "name": "mint",
      "outputs": [],
      "stateMutability": "payable",
      "type": "function"
    },
    {
      "inputs": [],
      "name": "name",
      "outputs": [
        {
          "internalType": "string",
          "name": "",
          "type": "string"
        }
      ],
      "stateMutability": "view",
      "type": "function"
    },
    {
      "inputs": [],
      "name": "owner",
      "outputs": [
        {
          "internalType": "address",
          "name": "",
          "type": "address"
        }
      ],
      "stateMutability": "view",
      "type": "function"
    },
    {
      "inputs": [
        {
          "internalType": "uint256",
          "name": "_amount",
          "type": "uint256"
        }
      ],
      "name": "setMaxSupply",
      "outputs": [],
      "stateMutability": "nonpayable",
      "type": "function"
    },
    {
      "inputs": [
        {
          "internalType": "uint256",
          "name": "_tokenPrice",
          "type": "uint256"
        }
      ],
      "name": "setTokenPrice",
      "outputs": [],
      "stateMutability": "nonpayable",
      "type": "function"
    },
    {
      "inputs": [],
      "name": "symbol",
      "outputs": [
        {
          "internalType": "string",
          "name": "",
          "type": "string"
        }
      ],
      "stateMutability": "view",
      "type": "function"
    },
    {
      "inputs": [],
      "name": "tokenPrice",
      "outputs": [
        {
          "internalType": "uint256",
          "name": "",
          "type": "uint256"
        }
      ],
      "stateMutability": "view",
      "type": "function"
    },
    {
      "inputs": [],
      "name": "totalSupply",
      "outputs": [
        {
          "internalType": "uint256",
          "name": "",
          "type": "uint256"
        }
      ],
      "stateMutability": "view",
      "type": "function"
    },
    {
      "inputs": [
        {
          "internalType": "address",
          "name": "to",
          "type": "address"
        },
        {
          "internalType": "uint256",
          "name": "amount",
          "type": "uint256"
        }
      ],
      "name": "transfer",
      "outputs": [
        {
          "internalType": "bool",
          "name": "",
          "type": "bool"
        }
      ],
      "stateMutability": "nonpayable",
      "type": "function"
    },
    {
      "inputs": [
        {
          "internalType": "address",
          "name": "from",
          "type": "address"
        },
        {
          "internalType": "address",
          "name": "to",
          "type": "address"
        },
        {
          "internalType": "uint256",
          "name": "amount",
          "type": "uint256"
        }
      ],
      "name": "transferFrom",
      "outputs": [
        {
          "internalType": "bool",
          "name": "",
          "type": "bool"
        }
      ],
      "stateMutability": "nonpayable",
      "type": "function"
    },
    {
      "inputs": [],
      "name": "withdrawEther",
      "outputs": [],
      "stateMutability": "nonpayable",
      "type": "function"
    }
  ],
  "bytecode": "0x60806040523480156200001157600080fd5b506040518060400160405280600881526020017f484b50746f6b656e0000000000000000000000000000000000000000000000008152506040518060400160405280600381526020017f484b50000000000000000000000000000000000000000000000000000000000081525081600390805190602001906200009692919062000117565b508060049080519060200190620000af92919062000117565b505050662386f26fc10000600581905550680821ab0d441498000060068190555033600760006101000a81548173ffffffffffffffffffffffffffffffffffffffff021916908373ffffffffffffffffffffffffffffffffffffffff1602179055506200022c565b8280546200012590620001f6565b90600052602060002090601f01602090048101928262000149576000855562000195565b82601f106200016457805160ff191683800117855562000195565b8280016001018555821562000195579182015b828111156200019457825182559160200191906001019062000177565b5b509050620001a49190620001a8565b5090565b5b80821115620001c3576000816000905550600101620001a9565b5090565b7f4e487b7100000000000000000000000000000000000000000000000000000000600052602260045260246000fd5b600060028204905060018216806200020f57607f821691505b60208210811415620002265762000225620001c7565b5b50919050565b611fff806200023c6000396000f3fe60806040526004361061011f5760003560e01c80637362377b116100a0578063a0712d6811610064578063a0712d68146103d5578063a457c2d7146103f1578063a9059cbb1461042e578063d5abeb011461046b578063dd62ed3e146104965761011f565b80637362377b1461031457806379cc67901461032b5780637ff9b596146103545780638da5cb5b1461037f57806395d89b41146103aa5761011f565b806339509351116100e7578063395093511461021f57806342966c681461025c5780636a61e5fc146102855780636f8b44b0146102ae57806370a08231146102d75761011f565b806306fdde0314610124578063095ea7b31461014f57806318160ddd1461018c57806323b872dd146101b7578063313ce567146101f4575b600080fd5b34801561013057600080fd5b506101396104d3565b60405161014691906112fc565b60405180910390f35b34801561015b57600080fd5b50610176600480360381019061017191906113b7565b610565565b6040516101839190611412565b60405180910390f35b34801561019857600080fd5b506101a1610588565b6040516101ae919061143c565b60405180910390f35b3480156101c357600080fd5b506101de60048036038101906101d99190611457565b610592565b6040516101eb9190611412565b60405180910390f35b34801561020057600080fd5b506102096105c1565b60405161021691906114c6565b60405180910390f35b34801561022b57600080fd5b50610246600480360381019061024191906113b7565b6105ca565b6040516102539190611412565b60405180910390f35b34801561026857600080fd5b50610283600480360381019061027e91906114e1565b610601565b005b34801561029157600080fd5b506102ac60048036038101906102a791906114e1565b610615565b005b3480156102ba57600080fd5b506102d560048036038101906102d091906114e1565b61061f565b005b3480156102e357600080fd5b506102fe60048036038101906102f9919061150e565b610629565b60405161030b919061143c565b60405180910390f35b34801561032057600080fd5b50610329610671565b005b34801561033757600080fd5b50610352600480360381019061034d91906113b7565b61076c565b005b34801561036057600080fd5b5061036961078c565b604051610376919061143c565b60405180910390f35b34801561038b57600080fd5b50610394610792565b6040516103a1919061154a565b60405180910390f35b3480156103b657600080fd5b506103bf6107b8565b6040516103cc91906112fc565b60405180910390f35b6103ef60048036038101906103ea91906114e1565b61084a565b005b3480156103fd57600080fd5b50610418600480360381019061041391906113b7565b61091b565b6040516104259190611412565b60405180910390f35b34801561043a57600080fd5b50610455600480360381019061045091906113b7565b610992565b6040516104629190611412565b60405180910390f35b34801561047757600080fd5b506104806109b5565b60405161048d919061143c565b60405180910390f35b3480156104a257600080fd5b506104bd60048036038101906104b89190611565565b6109bb565b6040516104ca919061143c565b60405180910390f35b6060600380546104e2906115d4565b80601f016020809104026020016040519081016040528092919081815260200182805461050e906115d4565b801561055b5780601f106105305761010080835404028352916020019161055b565b820191906000526020600020905b81548152906001019060200180831161053e57829003601f168201915b5050505050905090565b600080610570610a42565b905061057d818585610a4a565b600191505092915050565b6000600254905090565b60008061059d610a42565b90506105aa858285610c15565b6105b5858585610ca1565b60019150509392505050565b60006012905090565b6000806105d5610a42565b90506105f68185856105e785896109bb565b6105f19190611635565b610a4a565b600191505092915050565b61061261060c610a42565b82610f22565b50565b8060058190555050565b8060068190555050565b60008060008373ffffffffffffffffffffffffffffffffffffffff1673ffffffffffffffffffffffffffffffffffffffff168152602001908152602001600020549050919050565b600760009054906101000a900473ffffffffffffffffffffffffffffffffffffffff1673ffffffffffffffffffffffffffffffffffffffff163373ffffffffffffffffffffffffffffffffffffffff1614610701576040517f08c379a00000000000000000000000000000000000000000000000000000000081526004016106f8906116d7565b60405180910390fd5b600760009054906101000a900473ffffffffffffffffffffffffffffffffffffffff1673ffffffffffffffffffffffffffffffffffffffff166108fc479081150290604051600060405180830381858888f19350505050158015610769573d6000803e3d6000fd5b50565b61077e82610778610a42565b83610c15565b6107888282610f22565b5050565b60055481565b600760009054906101000a900473ffffffffffffffffffffffffffffffffffffffff1681565b6060600480546107c7906115d4565b80601f01602080910402602001604051908101604052809291908181526020018280546107f3906115d4565b80156108405780601f1061081557610100808354040283529160200191610840565b820191906000526020600020905b81548152906001019060200180831161082357829003601f168201915b5050505050905090565b60065481610856610588565b6108609190611635565b106108a0576040517f08c379a000000000000000000000000000000000000000000000000000000000815260040161089790611743565b60405180910390fd5b600554816108ac6105c1565b600a6108b89190611896565b346108c391906118e1565b6108cd919061196a565b101561090e576040517f08c379a000000000000000000000000000000000000000000000000000000000815260040161090590611a0d565b60405180910390fd5b61091833826110f9565b50565b600080610926610a42565b9050600061093482866109bb565b905083811015610979576040517f08c379a000000000000000000000000000000000000000000000000000000000815260040161097090611a9f565b60405180910390fd5b6109868286868403610a4a565b60019250505092915050565b60008061099d610a42565b90506109aa818585610ca1565b600191505092915050565b60065481565b6000600160008473ffffffffffffffffffffffffffffffffffffffff1673ffffffffffffffffffffffffffffffffffffffff16815260200190815260200160002060008373ffffffffffffffffffffffffffffffffffffffff1673ffffffffffffffffffffffffffffffffffffffff16815260200190815260200160002054905092915050565b600033905090565b600073ffffffffffffffffffffffffffffffffffffffff168373ffffffffffffffffffffffffffffffffffffffff161415610aba576040517f08c379a0000000000000000000000000000000000000000000000000000000008152600401610ab190611b31565b60405180910390fd5b600073ffffffffffffffffffffffffffffffffffffffff168273ffffffffffffffffffffffffffffffffffffffff161415610b2a576040517f08c379a0000000000000000000000000000000000000000000000000000000008152600401610b2190611bc3565b60405180910390fd5b80600160008573ffffffffffffffffffffffffffffffffffffffff1673ffffffffffffffffffffffffffffffffffffffff16815260200190815260200160002060008473ffffffffffffffffffffffffffffffffffffffff1673ffffffffffffffffffffffffffffffffffffffff168152602001908152602001600020819055508173ffffffffffffffffffffffffffffffffffffffff168373ffffffffffffffffffffffffffffffffffffffff167f8c5be1e5ebec7d5bd14f71427d1e84f3dd0314c0f7b2291e5b200ac8c7c3b92583604051610c08919061143c565b60405180910390a3505050565b6000610c2184846109bb565b90507fffffffffffffffffffffffffffffffffffffffffffffffffffffffffffffffff8114610c9b5781811015610c8d576040517f08c379a0000000000000000000000000000000000000000000000000000000008152600401610c8490611c2f565b60405180910390fd5b610c9a8484848403610a4a565b5b50505050565b600073ffffffffffffffffffffffffffffffffffffffff168373ffffffffffffffffffffffffffffffffffffffff161415610d11576040517f08c379a0000000000000000000000000000000000000000000000000000000008152600401610d0890611cc1565b60405180910390fd5b600073ffffffffffffffffffffffffffffffffffffffff168273ffffffffffffffffffffffffffffffffffffffff161415610d81576040517f08c379a0000000000000000000000000000000000000000000000000000000008152600401610d7890611d53565b60405180910390fd5b610d8c838383611259565b60008060008573ffffffffffffffffffffffffffffffffffffffff1673ffffffffffffffffffffffffffffffffffffffff16815260200190815260200160002054905081811015610e12576040517f08c379a0000000000000000000000000000000000000000000000000000000008152600401610e0990611de5565b60405180910390fd5b8181036000808673ffffffffffffffffffffffffffffffffffffffff1673ffffffffffffffffffffffffffffffffffffffff16815260200190815260200160002081905550816000808573ffffffffffffffffffffffffffffffffffffffff1673ffffffffffffffffffffffffffffffffffffffff1681526020019081526020016000206000828254610ea59190611635565b925050819055508273ffffffffffffffffffffffffffffffffffffffff168473ffffffffffffffffffffffffffffffffffffffff167fddf252ad1be2c89b69c2b068fc378daa952ba7f163c4a11628f55a4df523b3ef84604051610f09919061143c565b60405180910390a3610f1c84848461125e565b50505050565b600073ffffffffffffffffffffffffffffffffffffffff168273ffffffffffffffffffffffffffffffffffffffff161415610f92576040517f08c379a0000000000000000000000000000000000000000000000000000000008152600401610f8990611e77565b60405180910390fd5b610f9e82600083611259565b60008060008473ffffffffffffffffffffffffffffffffffffffff1673ffffffffffffffffffffffffffffffffffffffff16815260200190815260200160002054905081811015611024576040517f08c379a000000000000000000000000000000000000000000000000000000000815260040161101b90611f09565b60405180910390fd5b8181036000808573ffffffffffffffffffffffffffffffffffffffff1673ffffffffffffffffffffffffffffffffffffffff16815260200190815260200160002081905550816002600082825461107b9190611f29565b92505081905550600073ffffffffffffffffffffffffffffffffffffffff168373ffffffffffffffffffffffffffffffffffffffff167fddf252ad1be2c89b69c2b068fc378daa952ba7f163c4a11628f55a4df523b3ef846040516110e0919061143c565b60405180910390a36110f48360008461125e565b505050565b600073ffffffffffffffffffffffffffffffffffffffff168273ffffffffffffffffffffffffffffffffffffffff161415611169576040517f08c379a000000000000000000000000000000000000000000000000000000000815260040161116090611fa9565b60405180910390fd5b61117560008383611259565b80600260008282546111879190611635565b92505081905550806000808473ffffffffffffffffffffffffffffffffffffffff1673ffffffffffffffffffffffffffffffffffffffff16815260200190815260200160002060008282546111dc9190611635565b925050819055508173ffffffffffffffffffffffffffffffffffffffff16600073ffffffffffffffffffffffffffffffffffffffff167fddf252ad1be2c89b69c2b068fc378daa952ba7f163c4a11628f55a4df523b3ef83604051611241919061143c565b60405180910390a36112556000838361125e565b5050565b505050565b505050565b600081519050919050565b600082825260208201905092915050565b60005b8381101561129d578082015181840152602081019050611282565b838111156112ac576000848401525b50505050565b6000601f19601f8301169050919050565b60006112ce82611263565b6112d8818561126e565b93506112e881856020860161127f565b6112f1816112b2565b840191505092915050565b6000602082019050818103600083015261131681846112c3565b905092915050565b600080fd5b600073ffffffffffffffffffffffffffffffffffffffff82169050919050565b600061134e82611323565b9050919050565b61135e81611343565b811461136957600080fd5b50565b60008135905061137b81611355565b92915050565b6000819050919050565b61139481611381565b811461139f57600080fd5b50565b6000813590506113b18161138b565b92915050565b600080604083850312156113ce576113cd61131e565b5b60006113dc8582860161136c565b92505060206113ed858286016113a2565b9150509250929050565b60008115159050919050565b61140c816113f7565b82525050565b60006020820190506114276000830184611403565b92915050565b61143681611381565b82525050565b6000602082019050611451600083018461142d565b92915050565b6000806000606084860312156114705761146f61131e565b5b600061147e8682870161136c565b935050602061148f8682870161136c565b92505060406114a0868287016113a2565b9150509250925092565b600060ff82169050919050565b6114c0816114aa565b82525050565b60006020820190506114db60008301846114b7565b92915050565b6000602082840312156114f7576114f661131e565b5b6000611505848285016113a2565b91505092915050565b6000602082840312156115245761152361131e565b5b60006115328482850161136c565b91505092915050565b61154481611343565b82525050565b600060208201905061155f600083018461153b565b92915050565b6000806040838503121561157c5761157b61131e565b5b600061158a8582860161136c565b925050602061159b8582860161136c565b9150509250929050565b7f4e487b7100000000000000000000000000000000000000000000000000000000600052602260045260246000fd5b600060028204905060018216806115ec57607f821691505b60208210811415611600576115ff6115a5565b5b50919050565b7f4e487b7100000000000000000000000000000000000000000000000000000000600052601160045260246000fd5b600061164082611381565b915061164b83611381565b9250827fffffffffffffffffffffffffffffffffffffffffffffffffffffffffffffffff038211156116805761167f611606565b5b828201905092915050565b7f4f6e6c79206f776e65722063616e207769746864726177206574686572000000600082015250565b60006116c1601d8361126e565b91506116cc8261168b565b602082019050919050565b600060208201905081810360008301526116f0816116b4565b9050919050565b7f457863656564696e67206d617820737570706c79000000000000000000000000600082015250565b600061172d60148361126e565b9150611738826116f7565b602082019050919050565b6000602082019050818103600083015261175c81611720565b9050919050565b60008160011c9050919050565b6000808291508390505b60018511156117ba5780860481111561179657611795611606565b5b60018516156117a55780820291505b80810290506117b385611763565b945061177a565b94509492505050565b6000826117d3576001905061188f565b816117e1576000905061188f565b81600181146117f7576002811461180157611830565b600191505061188f565b60ff84111561181357611812611606565b5b8360020a91508482111561182a57611829611606565b5b5061188f565b5060208310610133831016604e8410600b84101617156118655782820a9050838111156118605761185f611606565b5b61188f565b6118728484846001611770565b9250905081840481111561188957611888611606565b5b81810290505b9392505050565b60006118a182611381565b91506118ac836114aa565b92506118d97fffffffffffffffffffffffffffffffffffffffffffffffffffffffffffffffff84846117c3565b905092915050565b60006118ec82611381565b91506118f783611381565b9250817fffffffffffffffffffffffffffffffffffffffffffffffffffffffffffffffff04831182151516156119305761192f611606565b5b828202905092915050565b7f4e487b7100000000000000000000000000000000000000000000000000000000600052601260045260246000fd5b600061197582611381565b915061198083611381565b9250826119905761198f61193b565b5b828204905092915050565b7f506179204574686572206163636f7264696e6720746f20546f6b656e2050726960008201527f6365000000000000000000000000000000000000000000000000000000000000602082015250565b60006119f760228361126e565b9150611a028261199b565b604082019050919050565b60006020820190508181036000830152611a26816119ea565b9050919050565b7f45524332303a2064656372656173656420616c6c6f77616e63652062656c6f7760008201527f207a65726f000000000000000000000000000000000000000000000000000000602082015250565b6000611a8960258361126e565b9150611a9482611a2d565b604082019050919050565b60006020820190508181036000830152611ab881611a7c565b9050919050565b7f45524332303a20617070726f76652066726f6d20746865207a65726f2061646460008201527f7265737300000000000000000000000000000000000000000000000000000000602082015250565b6000611b1b60248361126e565b9150611b2682611abf565b604082019050919050565b60006020820190508181036000830152611b4a81611b0e565b9050919050565b7f45524332303a20617070726f766520746f20746865207a65726f20616464726560008201527f7373000000000000000000000000000000000000000000000000000000000000602082015250565b6000611bad60228361126e565b9150611bb882611b51565b604082019050919050565b60006020820190508181036000830152611bdc81611ba0565b9050919050565b7f45524332303a20696e73756666696369656e7420616c6c6f77616e6365000000600082015250565b6000611c19601d8361126e565b9150611c2482611be3565b602082019050919050565b60006020820190508181036000830152611c4881611c0c565b9050919050565b7f45524332303a207472616e736665722066726f6d20746865207a65726f20616460008201527f6472657373000000000000000000000000000000000000000000000000000000602082015250565b6000611cab60258361126e565b9150611cb682611c4f565b604082019050919050565b60006020820190508181036000830152611cda81611c9e565b9050919050565b7f45524332303a207472616e7366657220746f20746865207a65726f206164647260008201527f6573730000000000000000000000000000000000000000000000000000000000602082015250565b6000611d3d60238361126e565b9150611d4882611ce1565b604082019050919050565b60006020820190508181036000830152611d6c81611d30565b9050919050565b7f45524332303a207472616e7366657220616d6f756e742065786365656473206260008201527f616c616e63650000000000000000000000000000000000000000000000000000602082015250565b6000611dcf60268361126e565b9150611dda82611d73565b604082019050919050565b60006020820190508181036000830152611dfe81611dc2565b9050919050565b7f45524332303a206275726e2066726f6d20746865207a65726f2061646472657360008201527f7300000000000000000000000000000000000000000000000000000000000000602082015250565b6000611e6160218361126e565b9150611e6c82611e05565b604082019050919050565b60006020820190508181036000830152611e9081611e54565b9050919050565b7f45524332303a206275726e20616d6f756e7420657863656564732062616c616e60008201527f6365000000000000000000000000000000000000000000000000000000000000602082015250565b6000611ef360228361126e565b9150611efe82611e97565b604082019050919050565b60006020820190508181036000830152611f2281611ee6565b9050919050565b6000611f3482611381565b9150611f3f83611381565b925082821015611f5257611f51611606565b5b828203905092915050565b7f45524332303a206d696e7420746f20746865207a65726f206164647265737300600082015250565b6000611f93601f8361126e565b9150611f9e82611f5d565b602082019050919050565b60006020820190508181036000830152611fc281611f86565b905091905056fea2646970667358221220831bcee1364326d5ef142f5cbfd2746d84e25f5a248d7a284ffe7cac10cb91b864736f6c63430008090033",
  "linkReferences": {},
  "deployedLinkReferences": {}
}