{
  "_format": "hh-sol-artifact-1",
  "contractName": "HKPtoken",
  "sourceName": "contracts/Token.sol",
  "abi": [
    {
      "inputs": [],
      "stateMutability": "nonpayable",
      "type": "constructor"
    },
    {
      "anonymous": false,
      "inputs": [
        {
          "indexed": true,
          "internalType": "address",
          "name": "owner",
          "type": "address"
        },
        {
          "indexed": true,
          "internalType": "address",
          "name": "spender",
          "type": "address"
        },
        {
          "indexed": false,
          "internalType": "uint256",
          "name": "value",
          "type": "uint256"
        }
      ],
      "name": "Approval",
      "type": "event"
    },
    {
      "anonymous": false,
      "inputs": [
        {
          "indexed": true,
          "internalType": "address",
          "name": "previousOwner",
          "type": "address"
        },
        {
          "indexed": true,
          "internalType": "address",
          "name": "newOwner",
          "type": "address"
        }
      ],
      "name": "OwnershipTransferred",
      "type": "event"
    },
    {
      "anonymous": false,
      "inputs": [
        {
          "indexed": true,
          "internalType": "address",
          "name": "from",
          "type": "address"
        },
        {
          "indexed": true,
          "internalType": "address",
          "name": "to",
          "type": "address"
        },
        {
          "indexed": false,
          "internalType": "uint256",
          "name": "value",
          "type": "uint256"
        }
      ],
      "name": "Transfer",
      "type": "event"
    },
    {
      "inputs": [
        {
          "internalType": "address",
          "name": "owner",
          "type": "address"
        },
        {
          "internalType": "address",
          "name": "spender",
          "type": "address"
        }
      ],
      "name": "allowance",
      "outputs": [
        {
          "internalType": "uint256",
          "name": "",
          "type": "uint256"
        }
      ],
      "stateMutability": "view",
      "type": "function"
    },
    {
      "inputs": [
        {
          "internalType": "address",
          "name": "spender",
          "type": "address"
        },
        {
          "internalType": "uint256",
          "name": "amount",
          "type": "uint256"
        }
      ],
      "name": "approve",
      "outputs": [
        {
          "internalType": "bool",
          "name": "",
          "type": "bool"
        }
      ],
      "stateMutability": "nonpayable",
      "type": "function"
    },
    {
      "inputs": [
        {
          "internalType": "address",
          "name": "account",
          "type": "address"
        }
      ],
      "name": "balanceOf",
      "outputs": [
        {
          "internalType": "uint256",
          "name": "",
          "type": "uint256"
        }
      ],
      "stateMutability": "view",
      "type": "function"
    },
    {
      "inputs": [
        {
          "internalType": "uint256",
          "name": "amount",
          "type": "uint256"
        }
      ],
      "name": "burn",
      "outputs": [],
      "stateMutability": "nonpayable",
      "type": "function"
    },
    {
      "inputs": [
        {
          "internalType": "address",
          "name": "account",
          "type": "address"
        },
        {
          "internalType": "uint256",
          "name": "amount",
          "type": "uint256"
        }
      ],
      "name": "burnFrom",
      "outputs": [],
      "stateMutability": "nonpayable",
      "type": "function"
    },
    {
      "inputs": [],
      "name": "decimals",
      "outputs": [
        {
          "internalType": "uint8",
          "name": "",
          "type": "uint8"
        }
      ],
      "stateMutability": "view",
      "type": "function"
    },
    {
      "inputs": [
        {
          "internalType": "address",
          "name": "spender",
          "type": "address"
        },
        {
          "internalType": "uint256",
          "name": "subtractedValue",
          "type": "uint256"
        }
      ],
      "name": "decreaseAllowance",
      "outputs": [
        {
          "internalType": "bool",
          "name": "",
          "type": "bool"
        }
      ],
      "stateMutability": "nonpayable",
      "type": "function"
    },
    {
      "inputs": [
        {
          "internalType": "address",
          "name": "spender",
          "type": "address"
        },
        {
          "internalType": "uint256",
          "name": "addedValue",
          "type": "uint256"
        }
      ],
      "name": "increaseAllowance",
      "outputs": [
        {
          "internalType": "bool",
          "name": "",
          "type": "bool"
        }
      ],
      "stateMutability": "nonpayable",
      "type": "function"
    },
    {
      "inputs": [],
      "name": "maxSupply",
      "outputs": [
        {
          "internalType": "uint256",
          "name": "",
          "type": "uint256"
        }
      ],
      "stateMutability": "view",
      "type": "function"
    },
    {
      "inputs": [
        {
          "internalType": "uint256",
          "name": "amount",
          "type": "uint256"
        }
      ],
      "name": "mint",
      "outputs": [],
      "stateMutability": "payable",
      "type": "function"
    },
    {
      "inputs": [],
      "name": "name",
      "outputs": [
        {
          "internalType": "string",
          "name": "",
          "type": "string"
        }
      ],
      "stateMutability": "view",
      "type": "function"
    },
    {
      "inputs": [],
      "name": "owner",
      "outputs": [
        {
          "internalType": "address",
          "name": "",
          "type": "address"
        }
      ],
      "stateMutability": "view",
      "type": "function"
    },
    {
      "inputs": [],
      "name": "renounceOwnership",
      "outputs": [],
      "stateMutability": "nonpayable",
      "type": "function"
    },
    {
      "inputs": [],
      "name": "returnState",
      "outputs": [
        {
          "internalType": "uint256",
          "name": "_myBalance",
          "type": "uint256"
        },
        {
          "internalType": "uint256",
          "name": "_maxSupply",
          "type": "uint256"
        },
        {
          "internalType": "uint256",
          "name": "_totalSupply",
          "type": "uint256"
        },
        {
          "internalType": "uint256",
          "name": "_tokenPrice",
          "type": "uint256"
        }
      ],
      "stateMutability": "view",
      "type": "function"
    },
    {
      "inputs": [
        {
          "internalType": "uint256",
          "name": "_amount",
          "type": "uint256"
        }
      ],
      "name": "setMaxSupply",
      "outputs": [],
      "stateMutability": "nonpayable",
      "type": "function"
    },
    {
      "inputs": [
        {
          "internalType": "uint256",
          "name": "_tokenPrice",
          "type": "uint256"
        }
      ],
      "name": "setTokenPrice",
      "outputs": [],
      "stateMutability": "nonpayable",
      "type": "function"
    },
    {
      "inputs": [],
      "name": "symbol",
      "outputs": [
        {
          "internalType": "string",
          "name": "",
          "type": "string"
        }
      ],
      "stateMutability": "view",
      "type": "function"
    },
    {
      "inputs": [],
      "name": "tokenPrice",
      "outputs": [
        {
          "internalType": "uint256",
          "name": "",
          "type": "uint256"
        }
      ],
      "stateMutability": "view",
      "type": "function"
    },
    {
      "inputs": [],
      "name": "totalSupply",
      "outputs": [
        {
          "internalType": "uint256",
          "name": "",
          "type": "uint256"
        }
      ],
      "stateMutability": "view",
      "type": "function"
    },
    {
      "inputs": [
        {
          "internalType": "address",
          "name": "to",
          "type": "address"
        },
        {
          "internalType": "uint256",
          "name": "amount",
          "type": "uint256"
        }
      ],
      "name": "transfer",
      "outputs": [
        {
          "internalType": "bool",
          "name": "",
          "type": "bool"
        }
      ],
      "stateMutability": "nonpayable",
      "type": "function"
    },
    {
      "inputs": [
        {
          "internalType": "address",
          "name": "from",
          "type": "address"
        },
        {
          "internalType": "address",
          "name": "to",
          "type": "address"
        },
        {
          "internalType": "uint256",
          "name": "amount",
          "type": "uint256"
        }
      ],
      "name": "transferFrom",
      "outputs": [
        {
          "internalType": "bool",
          "name": "",
          "type": "bool"
        }
      ],
      "stateMutability": "nonpayable",
      "type": "function"
    },
    {
      "inputs": [
        {
          "internalType": "address",
          "name": "newOwner",
          "type": "address"
        }
      ],
      "name": "transferOwnership",
      "outputs": [],
      "stateMutability": "nonpayable",
      "type": "function"
    },
    {
      "inputs": [],
      "name": "withdrawEther",
      "outputs": [],
      "stateMutability": "nonpayable",
      "type": "function"
    }
  ],
  "bytecode": "0x60806040523480156200001157600080fd5b506040518060400160405280600881526020017f484b50746f6b656e0000000000000000000000000000000000000000000000008152506040518060400160405280600381526020017f484b500000000000000000000000000000000000000000000000000000000000815250816003908051906020019062000096929190620001c4565b508060049080519060200190620000af929190620001c4565b505050620000d2620000c6620000f660201b60201c565b620000fe60201b60201c565b66071afd498d0000600681905550680821ab0d4414980000600781905550620002d9565b600033905090565b6000600560009054906101000a900473ffffffffffffffffffffffffffffffffffffffff16905081600560006101000a81548173ffffffffffffffffffffffffffffffffffffffff021916908373ffffffffffffffffffffffffffffffffffffffff1602179055508173ffffffffffffffffffffffffffffffffffffffff168173ffffffffffffffffffffffffffffffffffffffff167f8be0079c531659141344cd1fd0a4f28419497f9722a3daafe3b4186f6b6457e060405160405180910390a35050565b828054620001d290620002a3565b90600052602060002090601f016020900481019282620001f6576000855562000242565b82601f106200021157805160ff191683800117855562000242565b8280016001018555821562000242579182015b828111156200024157825182559160200191906001019062000224565b5b50905062000251919062000255565b5090565b5b808211156200027057600081600090555060010162000256565b5090565b7f4e487b7100000000000000000000000000000000000000000000000000000000600052602260045260246000fd5b60006002820490506001821680620002bc57607f821691505b60208210811415620002d357620002d262000274565b5b50919050565b6122dd80620002e96000396000f3fe6080604052600436106101405760003560e01c8063715018a6116100b6578063a0712d681161006f578063a0712d681461043b578063a457c2d714610457578063a9059cbb14610494578063d5abeb01146104d1578063dd62ed3e146104fc578063f2fde38b1461053957610140565b8063715018a6146103635780637362377b1461037a57806379cc6790146103915780637ff9b596146103ba5780638da5cb5b146103e557806395d89b411461041057610140565b80633950935111610108578063395093511461024057806342966c681461027d57806358b45557146102a65780636a61e5fc146102d45780636f8b44b0146102fd57806370a082311461032657610140565b806306fdde0314610145578063095ea7b31461017057806318160ddd146101ad57806323b872dd146101d8578063313ce56714610215575b600080fd5b34801561015157600080fd5b5061015a610562565b6040516101679190611503565b60405180910390f35b34801561017c57600080fd5b50610197600480360381019061019291906115be565b6105f4565b6040516101a49190611619565b60405180910390f35b3480156101b957600080fd5b506101c2610617565b6040516101cf9190611643565b60405180910390f35b3480156101e457600080fd5b506101ff60048036038101906101fa919061165e565b610621565b60405161020c9190611619565b60405180910390f35b34801561022157600080fd5b5061022a610650565b60405161023791906116cd565b60405180910390f35b34801561024c57600080fd5b50610267600480360381019061026291906115be565b610659565b6040516102749190611619565b60405180910390f35b34801561028957600080fd5b506102a4600480360381019061029f91906116e8565b610690565b005b3480156102b257600080fd5b506102bb6106a4565b6040516102cb9493929190611715565b60405180910390f35b3480156102e057600080fd5b506102fb60048036038101906102f691906116e8565b6106cf565b005b34801561030957600080fd5b50610324600480360381019061031f91906116e8565b6106e1565b005b34801561033257600080fd5b5061034d6004803603810190610348919061175a565b6106f3565b60405161035a9190611643565b60405180910390f35b34801561036f57600080fd5b5061037861073b565b005b34801561038657600080fd5b5061038f61074f565b005b34801561039d57600080fd5b506103b860048036038101906103b391906115be565b6107a7565b005b3480156103c657600080fd5b506103cf6107c7565b6040516103dc9190611643565b60405180910390f35b3480156103f157600080fd5b506103fa6107cd565b6040516104079190611796565b60405180910390f35b34801561041c57600080fd5b506104256107f7565b6040516104329190611503565b60405180910390f35b610455600480360381019061045091906116e8565b610889565b005b34801561046357600080fd5b5061047e600480360381019061047991906115be565b61095a565b60405161048b9190611619565b60405180910390f35b3480156104a057600080fd5b506104bb60048036038101906104b691906115be565b6109d1565b6040516104c89190611619565b60405180910390f35b3480156104dd57600080fd5b506104e66109f4565b6040516104f39190611643565b60405180910390f35b34801561050857600080fd5b50610523600480360381019061051e91906117b1565b6109fa565b6040516105309190611643565b60405180910390f35b34801561054557600080fd5b50610560600480360381019061055b919061175a565b610a81565b005b60606003805461057190611820565b80601f016020809104026020016040519081016040528092919081815260200182805461059d90611820565b80156105ea5780601f106105bf576101008083540402835291602001916105ea565b820191906000526020600020905b8154815290600101906020018083116105cd57829003601f168201915b5050505050905090565b6000806105ff610b05565b905061060c818585610b0d565b600191505092915050565b6000600254905090565b60008061062c610b05565b9050610639858285610cd8565b610644858585610d64565b60019150509392505050565b60006012905090565b600080610664610b05565b905061068581858561067685896109fa565b6106809190611881565b610b0d565b600191505092915050565b6106a161069b610b05565b82610fe5565b50565b6000806000806106b3336106f3565b6007546106be610617565b600654935093509350935090919293565b6106d76111bc565b8060068190555050565b6106e96111bc565b8060078190555050565b60008060008373ffffffffffffffffffffffffffffffffffffffff1673ffffffffffffffffffffffffffffffffffffffff168152602001908152602001600020549050919050565b6107436111bc565b61074d600061123a565b565b6107576111bc565b61075f6107cd565b73ffffffffffffffffffffffffffffffffffffffff166108fc479081150290604051600060405180830381858888f193505050501580156107a4573d6000803e3d6000fd5b50565b6107b9826107b3610b05565b83610cd8565b6107c38282610fe5565b5050565b60065481565b6000600560009054906101000a900473ffffffffffffffffffffffffffffffffffffffff16905090565b60606004805461080690611820565b80601f016020809104026020016040519081016040528092919081815260200182805461083290611820565b801561087f5780601f106108545761010080835404028352916020019161087f565b820191906000526020600020905b81548152906001019060200180831161086257829003601f168201915b5050505050905090565b60075481610895610617565b61089f9190611881565b106108df576040517f08c379a00000000000000000000000000000000000000000000000000000000081526004016108d690611923565b60405180910390fd5b600654816108eb610650565b600a6108f79190611a76565b346109029190611ac1565b61090c9190611b4a565b101561094d576040517f08c379a000000000000000000000000000000000000000000000000000000000815260040161094490611bed565b60405180910390fd5b6109573382611300565b50565b600080610965610b05565b9050600061097382866109fa565b9050838110156109b8576040517f08c379a00000000000000000000000000000000000000000000000000000000081526004016109af90611c7f565b60405180910390fd5b6109c58286868403610b0d565b60019250505092915050565b6000806109dc610b05565b90506109e9818585610d64565b600191505092915050565b60075481565b6000600160008473ffffffffffffffffffffffffffffffffffffffff1673ffffffffffffffffffffffffffffffffffffffff16815260200190815260200160002060008373ffffffffffffffffffffffffffffffffffffffff1673ffffffffffffffffffffffffffffffffffffffff16815260200190815260200160002054905092915050565b610a896111bc565b600073ffffffffffffffffffffffffffffffffffffffff168173ffffffffffffffffffffffffffffffffffffffff161415610af9576040517f08c379a0000000000000000000000000000000000000000000000000000000008152600401610af090611d11565b60405180910390fd5b610b028161123a565b50565b600033905090565b600073ffffffffffffffffffffffffffffffffffffffff168373ffffffffffffffffffffffffffffffffffffffff161415610b7d576040517f08c379a0000000000000000000000000000000000000000000000000000000008152600401610b7490611da3565b60405180910390fd5b600073ffffffffffffffffffffffffffffffffffffffff168273ffffffffffffffffffffffffffffffffffffffff161415610bed576040517f08c379a0000000000000000000000000000000000000000000000000000000008152600401610be490611e35565b60405180910390fd5b80600160008573ffffffffffffffffffffffffffffffffffffffff1673ffffffffffffffffffffffffffffffffffffffff16815260200190815260200160002060008473ffffffffffffffffffffffffffffffffffffffff1673ffffffffffffffffffffffffffffffffffffffff168152602001908152602001600020819055508173ffffffffffffffffffffffffffffffffffffffff168373ffffffffffffffffffffffffffffffffffffffff167f8c5be1e5ebec7d5bd14f71427d1e84f3dd0314c0f7b2291e5b200ac8c7c3b92583604051610ccb9190611643565b60405180910390a3505050565b6000610ce484846109fa565b90507fffffffffffffffffffffffffffffffffffffffffffffffffffffffffffffffff8114610d5e5781811015610d50576040517f08c379a0000000000000000000000000000000000000000000000000000000008152600401610d4790611ea1565b60405180910390fd5b610d5d8484848403610b0d565b5b50505050565b600073ffffffffffffffffffffffffffffffffffffffff168373ffffffffffffffffffffffffffffffffffffffff161415610dd4576040517f08c379a0000000000000000000000000000000000000000000000000000000008152600401610dcb90611f33565b60405180910390fd5b600073ffffffffffffffffffffffffffffffffffffffff168273ffffffffffffffffffffffffffffffffffffffff161415610e44576040517f08c379a0000000000000000000000000000000000000000000000000000000008152600401610e3b90611fc5565b60405180910390fd5b610e4f838383611460565b60008060008573ffffffffffffffffffffffffffffffffffffffff1673ffffffffffffffffffffffffffffffffffffffff16815260200190815260200160002054905081811015610ed5576040517f08c379a0000000000000000000000000000000000000000000000000000000008152600401610ecc90612057565b60405180910390fd5b8181036000808673ffffffffffffffffffffffffffffffffffffffff1673ffffffffffffffffffffffffffffffffffffffff16815260200190815260200160002081905550816000808573ffffffffffffffffffffffffffffffffffffffff1673ffffffffffffffffffffffffffffffffffffffff1681526020019081526020016000206000828254610f689190611881565b925050819055508273ffffffffffffffffffffffffffffffffffffffff168473ffffffffffffffffffffffffffffffffffffffff167fddf252ad1be2c89b69c2b068fc378daa952ba7f163c4a11628f55a4df523b3ef84604051610fcc9190611643565b60405180910390a3610fdf848484611465565b50505050565b600073ffffffffffffffffffffffffffffffffffffffff168273ffffffffffffffffffffffffffffffffffffffff161415611055576040517f08c379a000000000000000000000000000000000000000000000000000000000815260040161104c906120e9565b60405180910390fd5b61106182600083611460565b60008060008473ffffffffffffffffffffffffffffffffffffffff1673ffffffffffffffffffffffffffffffffffffffff168152602001908152602001600020549050818110156110e7576040517f08c379a00000000000000000000000000000000000000000000000000000000081526004016110de9061217b565b60405180910390fd5b8181036000808573ffffffffffffffffffffffffffffffffffffffff1673ffffffffffffffffffffffffffffffffffffffff16815260200190815260200160002081905550816002600082825461113e919061219b565b92505081905550600073ffffffffffffffffffffffffffffffffffffffff168373ffffffffffffffffffffffffffffffffffffffff167fddf252ad1be2c89b69c2b068fc378daa952ba7f163c4a11628f55a4df523b3ef846040516111a39190611643565b60405180910390a36111b783600084611465565b505050565b6111c4610b05565b73ffffffffffffffffffffffffffffffffffffffff166111e26107cd565b73ffffffffffffffffffffffffffffffffffffffff1614611238576040517f08c379a000000000000000000000000000000000000000000000000000000000815260040161122f9061221b565b60405180910390fd5b565b6000600560009054906101000a900473ffffffffffffffffffffffffffffffffffffffff16905081600560006101000a81548173ffffffffffffffffffffffffffffffffffffffff021916908373ffffffffffffffffffffffffffffffffffffffff1602179055508173ffffffffffffffffffffffffffffffffffffffff168173ffffffffffffffffffffffffffffffffffffffff167f8be0079c531659141344cd1fd0a4f28419497f9722a3daafe3b4186f6b6457e060405160405180910390a35050565b600073ffffffffffffffffffffffffffffffffffffffff168273ffffffffffffffffffffffffffffffffffffffff161415611370576040517f08c379a000000000000000000000000000000000000000000000000000000000815260040161136790612287565b60405180910390fd5b61137c60008383611460565b806002600082825461138e9190611881565b92505081905550806000808473ffffffffffffffffffffffffffffffffffffffff1673ffffffffffffffffffffffffffffffffffffffff16815260200190815260200160002060008282546113e39190611881565b925050819055508173ffffffffffffffffffffffffffffffffffffffff16600073ffffffffffffffffffffffffffffffffffffffff167fddf252ad1be2c89b69c2b068fc378daa952ba7f163c4a11628f55a4df523b3ef836040516114489190611643565b60405180910390a361145c60008383611465565b5050565b505050565b505050565b600081519050919050565b600082825260208201905092915050565b60005b838110156114a4578082015181840152602081019050611489565b838111156114b3576000848401525b50505050565b6000601f19601f8301169050919050565b60006114d58261146a565b6114df8185611475565b93506114ef818560208601611486565b6114f8816114b9565b840191505092915050565b6000602082019050818103600083015261151d81846114ca565b905092915050565b600080fd5b600073ffffffffffffffffffffffffffffffffffffffff82169050919050565b60006115558261152a565b9050919050565b6115658161154a565b811461157057600080fd5b50565b6000813590506115828161155c565b92915050565b6000819050919050565b61159b81611588565b81146115a657600080fd5b50565b6000813590506115b881611592565b92915050565b600080604083850312156115d5576115d4611525565b5b60006115e385828601611573565b92505060206115f4858286016115a9565b9150509250929050565b60008115159050919050565b611613816115fe565b82525050565b600060208201905061162e600083018461160a565b92915050565b61163d81611588565b82525050565b60006020820190506116586000830184611634565b92915050565b60008060006060848603121561167757611676611525565b5b600061168586828701611573565b935050602061169686828701611573565b92505060406116a7868287016115a9565b9150509250925092565b600060ff82169050919050565b6116c7816116b1565b82525050565b60006020820190506116e260008301846116be565b92915050565b6000602082840312156116fe576116fd611525565b5b600061170c848285016115a9565b91505092915050565b600060808201905061172a6000830187611634565b6117376020830186611634565b6117446040830185611634565b6117516060830184611634565b95945050505050565b6000602082840312156117705761176f611525565b5b600061177e84828501611573565b91505092915050565b6117908161154a565b82525050565b60006020820190506117ab6000830184611787565b92915050565b600080604083850312156117c8576117c7611525565b5b60006117d685828601611573565b92505060206117e785828601611573565b9150509250929050565b7f4e487b7100000000000000000000000000000000000000000000000000000000600052602260045260246000fd5b6000600282049050600182168061183857607f821691505b6020821081141561184c5761184b6117f1565b5b50919050565b7f4e487b7100000000000000000000000000000000000000000000000000000000600052601160045260246000fd5b600061188c82611588565b915061189783611588565b9250827fffffffffffffffffffffffffffffffffffffffffffffffffffffffffffffffff038211156118cc576118cb611852565b5b828201905092915050565b7f457863656564696e67206d617820737570706c79000000000000000000000000600082015250565b600061190d601483611475565b9150611918826118d7565b602082019050919050565b6000602082019050818103600083015261193c81611900565b9050919050565b60008160011c9050919050565b6000808291508390505b600185111561199a5780860481111561197657611975611852565b5b60018516156119855780820291505b808102905061199385611943565b945061195a565b94509492505050565b6000826119b35760019050611a6f565b816119c15760009050611a6f565b81600181146119d757600281146119e157611a10565b6001915050611a6f565b60ff8411156119f3576119f2611852565b5b8360020a915084821115611a0a57611a09611852565b5b50611a6f565b5060208310610133831016604e8410600b8410161715611a455782820a905083811115611a4057611a3f611852565b5b611a6f565b611a528484846001611950565b92509050818404811115611a6957611a68611852565b5b81810290505b9392505050565b6000611a8182611588565b9150611a8c836116b1565b9250611ab97fffffffffffffffffffffffffffffffffffffffffffffffffffffffffffffffff84846119a3565b905092915050565b6000611acc82611588565b9150611ad783611588565b9250817fffffffffffffffffffffffffffffffffffffffffffffffffffffffffffffffff0483118215151615611b1057611b0f611852565b5b828202905092915050565b7f4e487b7100000000000000000000000000000000000000000000000000000000600052601260045260246000fd5b6000611b5582611588565b9150611b6083611588565b925082611b7057611b6f611b1b565b5b828204905092915050565b7f506179204574686572206163636f7264696e6720746f20546f6b656e2050726960008201527f6365000000000000000000000000000000000000000000000000000000000000602082015250565b6000611bd7602283611475565b9150611be282611b7b565b604082019050919050565b60006020820190508181036000830152611c0681611bca565b9050919050565b7f45524332303a2064656372656173656420616c6c6f77616e63652062656c6f7760008201527f207a65726f000000000000000000000000000000000000000000000000000000602082015250565b6000611c69602583611475565b9150611c7482611c0d565b604082019050919050565b60006020820190508181036000830152611c9881611c5c565b9050919050565b7f4f776e61626c653a206e6577206f776e657220697320746865207a65726f206160008201527f6464726573730000000000000000000000000000000000000000000000000000602082015250565b6000611cfb602683611475565b9150611d0682611c9f565b604082019050919050565b60006020820190508181036000830152611d2a81611cee565b9050919050565b7f45524332303a20617070726f76652066726f6d20746865207a65726f2061646460008201527f7265737300000000000000000000000000000000000000000000000000000000602082015250565b6000611d8d602483611475565b9150611d9882611d31565b604082019050919050565b60006020820190508181036000830152611dbc81611d80565b9050919050565b7f45524332303a20617070726f766520746f20746865207a65726f20616464726560008201527f7373000000000000000000000000000000000000000000000000000000000000602082015250565b6000611e1f602283611475565b9150611e2a82611dc3565b604082019050919050565b60006020820190508181036000830152611e4e81611e12565b9050919050565b7f45524332303a20696e73756666696369656e7420616c6c6f77616e6365000000600082015250565b6000611e8b601d83611475565b9150611e9682611e55565b602082019050919050565b60006020820190508181036000830152611eba81611e7e565b9050919050565b7f45524332303a207472616e736665722066726f6d20746865207a65726f20616460008201527f6472657373000000000000000000000000000000000000000000000000000000602082015250565b6000611f1d602583611475565b9150611f2882611ec1565b604082019050919050565b60006020820190508181036000830152611f4c81611f10565b9050919050565b7f45524332303a207472616e7366657220746f20746865207a65726f206164647260008201527f6573730000000000000000000000000000000000000000000000000000000000602082015250565b6000611faf602383611475565b9150611fba82611f53565b604082019050919050565b60006020820190508181036000830152611fde81611fa2565b9050919050565b7f45524332303a207472616e7366657220616d6f756e742065786365656473206260008201527f616c616e63650000000000000000000000000000000000000000000000000000602082015250565b6000612041602683611475565b915061204c82611fe5565b604082019050919050565b6000602082019050818103600083015261207081612034565b9050919050565b7f45524332303a206275726e2066726f6d20746865207a65726f2061646472657360008201527f7300000000000000000000000000000000000000000000000000000000000000602082015250565b60006120d3602183611475565b91506120de82612077565b604082019050919050565b60006020820190508181036000830152612102816120c6565b9050919050565b7f45524332303a206275726e20616d6f756e7420657863656564732062616c616e60008201527f6365000000000000000000000000000000000000000000000000000000000000602082015250565b6000612165602283611475565b915061217082612109565b604082019050919050565b6000602082019050818103600083015261219481612158565b9050919050565b60006121a682611588565b91506121b183611588565b9250828210156121c4576121c3611852565b5b828203905092915050565b7f4f776e61626c653a2063616c6c6572206973206e6f7420746865206f776e6572600082015250565b6000612205602083611475565b9150612210826121cf565b602082019050919050565b60006020820190508181036000830152612234816121f8565b9050919050565b7f45524332303a206d696e7420746f20746865207a65726f206164647265737300600082015250565b6000612271601f83611475565b915061227c8261223b565b602082019050919050565b600060208201905081810360008301526122a081612264565b905091905056fea264697066735822122043904c615b6d420d79a6b0d5f2732511c9958a779ec9122e6b89a04691f75d1464736f6c63430008090033",
  "linkReferences": {},
  "deployedLinkReferences": {}
}