{
    "_format": "hh-sol-artifact-1",
    "contractName": "HKPtoken",
    "sourceName": "contracts/Token.sol",
    "abi": [
        {
            "inputs": [],
            "stateMutability": "nonpayable",
            "type": "constructor"
        },
        {
            "anonymous": false,
            "inputs": [
                {
                    "indexed": true,
                    "internalType": "address",
                    "name": "owner",
                    "type": "address"
                },
                {
                    "indexed": true,
                    "internalType": "address",
                    "name": "spender",
                    "type": "address"
                },
                {
                    "indexed": false,
                    "internalType": "uint256",
                    "name": "value",
                    "type": "uint256"
                }
            ],
            "name": "Approval",
            "type": "event"
        },
        {
            "anonymous": false,
            "inputs": [
                {
                    "indexed": true,
                    "internalType": "address",
                    "name": "from",
                    "type": "address"
                },
                {
                    "indexed": true,
                    "internalType": "address",
                    "name": "to",
                    "type": "address"
                },
                {
                    "indexed": false,
                    "internalType": "uint256",
                    "name": "value",
                    "type": "uint256"
                }
            ],
            "name": "Transfer",
            "type": "event"
        },
        {
            "inputs": [
                {
                    "internalType": "address",
                    "name": "owner",
                    "type": "address"
                },
                {
                    "internalType": "address",
                    "name": "spender",
                    "type": "address"
                }
            ],
            "name": "allowance",
            "outputs": [
                {
                    "internalType": "uint256",
                    "name": "",
                    "type": "uint256"
                }
            ],
            "stateMutability": "view",
            "type": "function"
        },
        {
            "inputs": [
                {
                    "internalType": "address",
                    "name": "spender",
                    "type": "address"
                },
                {
                    "internalType": "uint256",
                    "name": "amount",
                    "type": "uint256"
                }
            ],
            "name": "approve",
            "outputs": [
                {
                    "internalType": "bool",
                    "name": "",
                    "type": "bool"
                }
            ],
            "stateMutability": "nonpayable",
            "type": "function"
        },
        {
            "inputs": [
                {
                    "internalType": "address",
                    "name": "account",
                    "type": "address"
                }
            ],
            "name": "balanceOf",
            "outputs": [
                {
                    "internalType": "uint256",
                    "name": "",
                    "type": "uint256"
                }
            ],
            "stateMutability": "view",
            "type": "function"
        },
        {
            "inputs": [
                {
                    "internalType": "uint256",
                    "name": "amount",
                    "type": "uint256"
                }
            ],
            "name": "burn",
            "outputs": [],
            "stateMutability": "nonpayable",
            "type": "function"
        },
        {
            "inputs": [
                {
                    "internalType": "address",
                    "name": "account",
                    "type": "address"
                },
                {
                    "internalType": "uint256",
                    "name": "amount",
                    "type": "uint256"
                }
            ],
            "name": "burnFrom",
            "outputs": [],
            "stateMutability": "nonpayable",
            "type": "function"
        },
        {
            "inputs": [],
            "name": "decimals",
            "outputs": [
                {
                    "internalType": "uint8",
                    "name": "",
                    "type": "uint8"
                }
            ],
            "stateMutability": "view",
            "type": "function"
        },
        {
            "inputs": [
                {
                    "internalType": "address",
                    "name": "spender",
                    "type": "address"
                },
                {
                    "internalType": "uint256",
                    "name": "subtractedValue",
                    "type": "uint256"
                }
            ],
            "name": "decreaseAllowance",
            "outputs": [
                {
                    "internalType": "bool",
                    "name": "",
                    "type": "bool"
                }
            ],
            "stateMutability": "nonpayable",
            "type": "function"
        },
        {
            "inputs": [
                {
                    "internalType": "address",
                    "name": "spender",
                    "type": "address"
                },
                {
                    "internalType": "uint256",
                    "name": "addedValue",
                    "type": "uint256"
                }
            ],
            "name": "increaseAllowance",
            "outputs": [
                {
                    "internalType": "bool",
                    "name": "",
                    "type": "bool"
                }
            ],
            "stateMutability": "nonpayable",
            "type": "function"
        },
        {
            "inputs": [],
            "name": "maxSupply",
            "outputs": [
                {
                    "internalType": "uint256",
                    "name": "",
                    "type": "uint256"
                }
            ],
            "stateMutability": "view",
            "type": "function"
        },
        {
            "inputs": [
                {
                    "internalType": "uint256",
                    "name": "amount",
                    "type": "uint256"
                }
            ],
            "name": "mint",
            "outputs": [],
            "stateMutability": "payable",
            "type": "function"
        },
        {
            "inputs": [],
            "name": "name",
            "outputs": [
                {
                    "internalType": "string",
                    "name": "",
                    "type": "string"
                }
            ],
            "stateMutability": "view",
            "type": "function"
        },
        {
            "inputs": [],
            "name": "owner",
            "outputs": [
                {
                    "internalType": "address",
                    "name": "",
                    "type": "address"
                }
            ],
            "stateMutability": "view",
            "type": "function"
        },
        {
            "inputs": [
                {
                    "internalType": "uint256",
                    "name": "_amount",
                    "type": "uint256"
                }
            ],
            "name": "setMaxSupply",
            "outputs": [],
            "stateMutability": "nonpayable",
            "type": "function"
        },
        {
            "inputs": [
                {
                    "internalType": "uint256",
                    "name": "_tokenPrice",
                    "type": "uint256"
                }
            ],
            "name": "setTokenPrice",
            "outputs": [],
            "stateMutability": "nonpayable",
            "type": "function"
        },
        {
            "inputs": [],
            "name": "symbol",
            "outputs": [
                {
                    "internalType": "string",
                    "name": "",
                    "type": "string"
                }
            ],
            "stateMutability": "view",
            "type": "function"
        },
        {
            "inputs": [],
            "name": "tokenPrice",
            "outputs": [
                {
                    "internalType": "uint256",
                    "name": "",
                    "type": "uint256"
                }
            ],
            "stateMutability": "view",
            "type": "function"
        },
        {
            "inputs": [],
            "name": "totalSupply",
            "outputs": [
                {
                    "internalType": "uint256",
                    "name": "",
                    "type": "uint256"
                }
            ],
            "stateMutability": "view",
            "type": "function"
        },
        {
            "inputs": [
                {
                    "internalType": "address",
                    "name": "to",
                    "type": "address"
                },
                {
                    "internalType": "uint256",
                    "name": "amount",
                    "type": "uint256"
                }
            ],
            "name": "transfer",
            "outputs": [
                {
                    "internalType": "bool",
                    "name": "",
                    "type": "bool"
                }
            ],
            "stateMutability": "nonpayable",
            "type": "function"
        },
        {
            "inputs": [
                {
                    "internalType": "address",
                    "name": "from",
                    "type": "address"
                },
                {
                    "internalType": "address",
                    "name": "to",
                    "type": "address"
                },
                {
                    "internalType": "uint256",
                    "name": "amount",
                    "type": "uint256"
                }
            ],
            "name": "transferFrom",
            "outputs": [
                {
                    "internalType": "bool",
                    "name": "",
                    "type": "bool"
                }
            ],
            "stateMutability": "nonpayable",
            "type": "function"
        },
        {
            "inputs": [],
            "name": "withdrawEther",
            "outputs": [],
            "stateMutability": "nonpayable",
            "type": "function"
        }
    ],
    "bytecode": "0x60806040523480156200001157600080fd5b506040518060400160405280600881526020017f484b50746f6b656e0000000000000000000000000000000000000000000000008152506040518060400160405280600381526020017f484b5000000000000000000000000000000000000000000000000000000000008152508160039080519060200190620000969291906200010f565b508060049080519060200190620000af9291906200010f565b505050662386f26fc10000600581905550609660068190555033600760006101000a81548173ffffffffffffffffffffffffffffffffffffffff021916908373ffffffffffffffffffffffffffffffffffffffff16021790555062000224565b8280546200011d90620001ee565b90600052602060002090601f0160209004810192826200014157600085556200018d565b82601f106200015c57805160ff19168380011785556200018d565b828001600101855582156200018d579182015b828111156200018c5782518255916020019190600101906200016f565b5b5090506200019c9190620001a0565b5090565b5b80821115620001bb576000816000905550600101620001a1565b5090565b7f4e487b7100000000000000000000000000000000000000000000000000000000600052602260045260246000fd5b600060028204905060018216806200020757607f821691505b602082108114156200021e576200021d620001bf565b5b50919050565b61201d80620002346000396000f3fe60806040526004361061011f5760003560e01c80637362377b116100a0578063a0712d6811610064578063a0712d68146103d5578063a457c2d7146103f1578063a9059cbb1461042e578063d5abeb011461046b578063dd62ed3e146104965761011f565b80637362377b1461031457806379cc67901461032b5780637ff9b596146103545780638da5cb5b1461037f57806395d89b41146103aa5761011f565b806339509351116100e7578063395093511461021f57806342966c681461025c5780636a61e5fc146102855780636f8b44b0146102ae57806370a08231146102d75761011f565b806306fdde0314610124578063095ea7b31461014f57806318160ddd1461018c57806323b872dd146101b7578063313ce567146101f4575b600080fd5b34801561013057600080fd5b506101396104d3565b604051610146919061131a565b60405180910390f35b34801561015b57600080fd5b50610176600480360381019061017191906113d5565b610565565b6040516101839190611430565b60405180910390f35b34801561019857600080fd5b506101a1610588565b6040516101ae919061145a565b60405180910390f35b3480156101c357600080fd5b506101de60048036038101906101d99190611475565b610592565b6040516101eb9190611430565b60405180910390f35b34801561020057600080fd5b506102096105c1565b60405161021691906114e4565b60405180910390f35b34801561022b57600080fd5b50610246600480360381019061024191906113d5565b6105ca565b6040516102539190611430565b60405180910390f35b34801561026857600080fd5b50610283600480360381019061027e91906114ff565b610601565b005b34801561029157600080fd5b506102ac60048036038101906102a791906114ff565b610615565b005b3480156102ba57600080fd5b506102d560048036038101906102d091906114ff565b61061f565b005b3480156102e357600080fd5b506102fe60048036038101906102f9919061152c565b610629565b60405161030b919061145a565b60405180910390f35b34801561032057600080fd5b50610329610671565b005b34801561033757600080fd5b50610352600480360381019061034d91906113d5565b61076c565b005b34801561036057600080fd5b5061036961078c565b604051610376919061145a565b60405180910390f35b34801561038b57600080fd5b50610394610792565b6040516103a19190611568565b60405180910390f35b3480156103b657600080fd5b506103bf6107b8565b6040516103cc919061131a565b60405180910390f35b6103ef60048036038101906103ea91906114ff565b61084a565b005b3480156103fd57600080fd5b50610418600480360381019061041391906113d5565b610939565b6040516104259190611430565b60405180910390f35b34801561043a57600080fd5b50610455600480360381019061045091906113d5565b6109b0565b6040516104629190611430565b60405180910390f35b34801561047757600080fd5b506104806109d3565b60405161048d919061145a565b60405180910390f35b3480156104a257600080fd5b506104bd60048036038101906104b89190611583565b6109d9565b6040516104ca919061145a565b60405180910390f35b6060600380546104e2906115f2565b80601f016020809104026020016040519081016040528092919081815260200182805461050e906115f2565b801561055b5780601f106105305761010080835404028352916020019161055b565b820191906000526020600020905b81548152906001019060200180831161053e57829003601f168201915b5050505050905090565b600080610570610a60565b905061057d818585610a68565b600191505092915050565b6000600254905090565b60008061059d610a60565b90506105aa858285610c33565b6105b5858585610cbf565b60019150509392505050565b60006012905090565b6000806105d5610a60565b90506105f68185856105e785896109d9565b6105f19190611653565b610a68565b600191505092915050565b61061261060c610a60565b82610f40565b50565b8060058190555050565b8060068190555050565b60008060008373ffffffffffffffffffffffffffffffffffffffff1673ffffffffffffffffffffffffffffffffffffffff168152602001908152602001600020549050919050565b600760009054906101000a900473ffffffffffffffffffffffffffffffffffffffff1673ffffffffffffffffffffffffffffffffffffffff163373ffffffffffffffffffffffffffffffffffffffff1614610701576040517f08c379a00000000000000000000000000000000000000000000000000000000081526004016106f8906116f5565b60405180910390fd5b600760009054906101000a900473ffffffffffffffffffffffffffffffffffffffff1673ffffffffffffffffffffffffffffffffffffffff166108fc479081150290604051600060405180830381858888f19350505050158015610769573d6000803e3d6000fd5b50565b61077e82610778610a60565b83610c33565b6107888282610f40565b5050565b60055481565b600760009054906101000a900473ffffffffffffffffffffffffffffffffffffffff1681565b6060600480546107c7906115f2565b80601f01602080910402602001604051908101604052809291908181526020018280546107f3906115f2565b80156108405780601f1061081557610100808354040283529160200191610840565b820191906000526020600020905b81548152906001019060200180831161082357829003601f168201915b5050505050905090565b6108526105c1565b600a61085e9190611848565b60065461086b9190611893565b81610874610588565b61087e9190611653565b106108be576040517f08c379a00000000000000000000000000000000000000000000000000000000081526004016108b590611939565b60405180910390fd5b600554816108ca6105c1565b600a6108d69190611848565b346108e19190611893565b6108eb9190611988565b101561092c576040517f08c379a000000000000000000000000000000000000000000000000000000000815260040161092390611a2b565b60405180910390fd5b6109363382611117565b50565b600080610944610a60565b9050600061095282866109d9565b905083811015610997576040517f08c379a000000000000000000000000000000000000000000000000000000000815260040161098e90611abd565b60405180910390fd5b6109a48286868403610a68565b60019250505092915050565b6000806109bb610a60565b90506109c8818585610cbf565b600191505092915050565b60065481565b6000600160008473ffffffffffffffffffffffffffffffffffffffff1673ffffffffffffffffffffffffffffffffffffffff16815260200190815260200160002060008373ffffffffffffffffffffffffffffffffffffffff1673ffffffffffffffffffffffffffffffffffffffff16815260200190815260200160002054905092915050565b600033905090565b600073ffffffffffffffffffffffffffffffffffffffff168373ffffffffffffffffffffffffffffffffffffffff161415610ad8576040517f08c379a0000000000000000000000000000000000000000000000000000000008152600401610acf90611b4f565b60405180910390fd5b600073ffffffffffffffffffffffffffffffffffffffff168273ffffffffffffffffffffffffffffffffffffffff161415610b48576040517f08c379a0000000000000000000000000000000000000000000000000000000008152600401610b3f90611be1565b60405180910390fd5b80600160008573ffffffffffffffffffffffffffffffffffffffff1673ffffffffffffffffffffffffffffffffffffffff16815260200190815260200160002060008473ffffffffffffffffffffffffffffffffffffffff1673ffffffffffffffffffffffffffffffffffffffff168152602001908152602001600020819055508173ffffffffffffffffffffffffffffffffffffffff168373ffffffffffffffffffffffffffffffffffffffff167f8c5be1e5ebec7d5bd14f71427d1e84f3dd0314c0f7b2291e5b200ac8c7c3b92583604051610c26919061145a565b60405180910390a3505050565b6000610c3f84846109d9565b90507fffffffffffffffffffffffffffffffffffffffffffffffffffffffffffffffff8114610cb95781811015610cab576040517f08c379a0000000000000000000000000000000000000000000000000000000008152600401610ca290611c4d565b60405180910390fd5b610cb88484848403610a68565b5b50505050565b600073ffffffffffffffffffffffffffffffffffffffff168373ffffffffffffffffffffffffffffffffffffffff161415610d2f576040517f08c379a0000000000000000000000000000000000000000000000000000000008152600401610d2690611cdf565b60405180910390fd5b600073ffffffffffffffffffffffffffffffffffffffff168273ffffffffffffffffffffffffffffffffffffffff161415610d9f576040517f08c379a0000000000000000000000000000000000000000000000000000000008152600401610d9690611d71565b60405180910390fd5b610daa838383611277565b60008060008573ffffffffffffffffffffffffffffffffffffffff1673ffffffffffffffffffffffffffffffffffffffff16815260200190815260200160002054905081811015610e30576040517f08c379a0000000000000000000000000000000000000000000000000000000008152600401610e2790611e03565b60405180910390fd5b8181036000808673ffffffffffffffffffffffffffffffffffffffff1673ffffffffffffffffffffffffffffffffffffffff16815260200190815260200160002081905550816000808573ffffffffffffffffffffffffffffffffffffffff1673ffffffffffffffffffffffffffffffffffffffff1681526020019081526020016000206000828254610ec39190611653565b925050819055508273ffffffffffffffffffffffffffffffffffffffff168473ffffffffffffffffffffffffffffffffffffffff167fddf252ad1be2c89b69c2b068fc378daa952ba7f163c4a11628f55a4df523b3ef84604051610f27919061145a565b60405180910390a3610f3a84848461127c565b50505050565b600073ffffffffffffffffffffffffffffffffffffffff168273ffffffffffffffffffffffffffffffffffffffff161415610fb0576040517f08c379a0000000000000000000000000000000000000000000000000000000008152600401610fa790611e95565b60405180910390fd5b610fbc82600083611277565b60008060008473ffffffffffffffffffffffffffffffffffffffff1673ffffffffffffffffffffffffffffffffffffffff16815260200190815260200160002054905081811015611042576040517f08c379a000000000000000000000000000000000000000000000000000000000815260040161103990611f27565b60405180910390fd5b8181036000808573ffffffffffffffffffffffffffffffffffffffff1673ffffffffffffffffffffffffffffffffffffffff1681526020019081526020016000208190555081600260008282546110999190611f47565b92505081905550600073ffffffffffffffffffffffffffffffffffffffff168373ffffffffffffffffffffffffffffffffffffffff167fddf252ad1be2c89b69c2b068fc378daa952ba7f163c4a11628f55a4df523b3ef846040516110fe919061145a565b60405180910390a36111128360008461127c565b505050565b600073ffffffffffffffffffffffffffffffffffffffff168273ffffffffffffffffffffffffffffffffffffffff161415611187576040517f08c379a000000000000000000000000000000000000000000000000000000000815260040161117e90611fc7565b60405180910390fd5b61119360008383611277565b80600260008282546111a59190611653565b92505081905550806000808473ffffffffffffffffffffffffffffffffffffffff1673ffffffffffffffffffffffffffffffffffffffff16815260200190815260200160002060008282546111fa9190611653565b925050819055508173ffffffffffffffffffffffffffffffffffffffff16600073ffffffffffffffffffffffffffffffffffffffff167fddf252ad1be2c89b69c2b068fc378daa952ba7f163c4a11628f55a4df523b3ef8360405161125f919061145a565b60405180910390a36112736000838361127c565b5050565b505050565b505050565b600081519050919050565b600082825260208201905092915050565b60005b838110156112bb5780820151818401526020810190506112a0565b838111156112ca576000848401525b50505050565b6000601f19601f8301169050919050565b60006112ec82611281565b6112f6818561128c565b935061130681856020860161129d565b61130f816112d0565b840191505092915050565b6000602082019050818103600083015261133481846112e1565b905092915050565b600080fd5b600073ffffffffffffffffffffffffffffffffffffffff82169050919050565b600061136c82611341565b9050919050565b61137c81611361565b811461138757600080fd5b50565b60008135905061139981611373565b92915050565b6000819050919050565b6113b28161139f565b81146113bd57600080fd5b50565b6000813590506113cf816113a9565b92915050565b600080604083850312156113ec576113eb61133c565b5b60006113fa8582860161138a565b925050602061140b858286016113c0565b9150509250929050565b60008115159050919050565b61142a81611415565b82525050565b60006020820190506114456000830184611421565b92915050565b6114548161139f565b82525050565b600060208201905061146f600083018461144b565b92915050565b60008060006060848603121561148e5761148d61133c565b5b600061149c8682870161138a565b93505060206114ad8682870161138a565b92505060406114be868287016113c0565b9150509250925092565b600060ff82169050919050565b6114de816114c8565b82525050565b60006020820190506114f960008301846114d5565b92915050565b6000602082840312156115155761151461133c565b5b6000611523848285016113c0565b91505092915050565b6000602082840312156115425761154161133c565b5b60006115508482850161138a565b91505092915050565b61156281611361565b82525050565b600060208201905061157d6000830184611559565b92915050565b6000806040838503121561159a5761159961133c565b5b60006115a88582860161138a565b92505060206115b98582860161138a565b9150509250929050565b7f4e487b7100000000000000000000000000000000000000000000000000000000600052602260045260246000fd5b6000600282049050600182168061160a57607f821691505b6020821081141561161e5761161d6115c3565b5b50919050565b7f4e487b7100000000000000000000000000000000000000000000000000000000600052601160045260246000fd5b600061165e8261139f565b91506116698361139f565b9250827fffffffffffffffffffffffffffffffffffffffffffffffffffffffffffffffff0382111561169e5761169d611624565b5b828201905092915050565b7f4f6e6c79206f776e65722063616e207769746864726177206574686572000000600082015250565b60006116df601d8361128c565b91506116ea826116a9565b602082019050919050565b6000602082019050818103600083015261170e816116d2565b9050919050565b60008160011c9050919050565b6000808291508390505b600185111561176c5780860481111561174857611747611624565b5b60018516156117575780820291505b808102905061176585611715565b945061172c565b94509492505050565b6000826117855760019050611841565b816117935760009050611841565b81600181146117a957600281146117b3576117e2565b6001915050611841565b60ff8411156117c5576117c4611624565b5b8360020a9150848211156117dc576117db611624565b5b50611841565b5060208310610133831016604e8410600b84101617156118175782820a90508381111561181257611811611624565b5b611841565b6118248484846001611722565b9250905081840481111561183b5761183a611624565b5b81810290505b9392505050565b60006118538261139f565b915061185e836114c8565b925061188b7fffffffffffffffffffffffffffffffffffffffffffffffffffffffffffffffff8484611775565b905092915050565b600061189e8261139f565b91506118a98361139f565b9250817fffffffffffffffffffffffffffffffffffffffffffffffffffffffffffffffff04831182151516156118e2576118e1611624565b5b828202905092915050565b7f457863656564696e67206d617820737570706c79000000000000000000000000600082015250565b600061192360148361128c565b915061192e826118ed565b602082019050919050565b6000602082019050818103600083015261195281611916565b9050919050565b7f4e487b7100000000000000000000000000000000000000000000000000000000600052601260045260246000fd5b60006119938261139f565b915061199e8361139f565b9250826119ae576119ad611959565b5b828204905092915050565b7f506179204574686572206163636f7264696e6720746f20546f6b656e2050726960008201527f6365000000000000000000000000000000000000000000000000000000000000602082015250565b6000611a1560228361128c565b9150611a20826119b9565b604082019050919050565b60006020820190508181036000830152611a4481611a08565b9050919050565b7f45524332303a2064656372656173656420616c6c6f77616e63652062656c6f7760008201527f207a65726f000000000000000000000000000000000000000000000000000000602082015250565b6000611aa760258361128c565b9150611ab282611a4b565b604082019050919050565b60006020820190508181036000830152611ad681611a9a565b9050919050565b7f45524332303a20617070726f76652066726f6d20746865207a65726f2061646460008201527f7265737300000000000000000000000000000000000000000000000000000000602082015250565b6000611b3960248361128c565b9150611b4482611add565b604082019050919050565b60006020820190508181036000830152611b6881611b2c565b9050919050565b7f45524332303a20617070726f766520746f20746865207a65726f20616464726560008201527f7373000000000000000000000000000000000000000000000000000000000000602082015250565b6000611bcb60228361128c565b9150611bd682611b6f565b604082019050919050565b60006020820190508181036000830152611bfa81611bbe565b9050919050565b7f45524332303a20696e73756666696369656e7420616c6c6f77616e6365000000600082015250565b6000611c37601d8361128c565b9150611c4282611c01565b602082019050919050565b60006020820190508181036000830152611c6681611c2a565b9050919050565b7f45524332303a207472616e736665722066726f6d20746865207a65726f20616460008201527f6472657373000000000000000000000000000000000000000000000000000000602082015250565b6000611cc960258361128c565b9150611cd482611c6d565b604082019050919050565b60006020820190508181036000830152611cf881611cbc565b9050919050565b7f45524332303a207472616e7366657220746f20746865207a65726f206164647260008201527f6573730000000000000000000000000000000000000000000000000000000000602082015250565b6000611d5b60238361128c565b9150611d6682611cff565b604082019050919050565b60006020820190508181036000830152611d8a81611d4e565b9050919050565b7f45524332303a207472616e7366657220616d6f756e742065786365656473206260008201527f616c616e63650000000000000000000000000000000000000000000000000000602082015250565b6000611ded60268361128c565b9150611df882611d91565b604082019050919050565b60006020820190508181036000830152611e1c81611de0565b9050919050565b7f45524332303a206275726e2066726f6d20746865207a65726f2061646472657360008201527f7300000000000000000000000000000000000000000000000000000000000000602082015250565b6000611e7f60218361128c565b9150611e8a82611e23565b604082019050919050565b60006020820190508181036000830152611eae81611e72565b9050919050565b7f45524332303a206275726e20616d6f756e7420657863656564732062616c616e60008201527f6365000000000000000000000000000000000000000000000000000000000000602082015250565b6000611f1160228361128c565b9150611f1c82611eb5565b604082019050919050565b60006020820190508181036000830152611f4081611f04565b9050919050565b6000611f528261139f565b9150611f5d8361139f565b925082821015611f7057611f6f611624565b5b828203905092915050565b7f45524332303a206d696e7420746f20746865207a65726f206164647265737300600082015250565b6000611fb1601f8361128c565b9150611fbc82611f7b565b602082019050919050565b60006020820190508181036000830152611fe081611fa4565b905091905056fea26469706673582212204ef205c87df0437da0721ef53e875561ce244ea731fb72ec72ce4a27c0f0cf6c64736f6c63430008090033",
    "linkReferences": {},
    "deployedLinkReferences": {}
}